:100000000C94CD020C942A0A0C94030A0C94F50269
:100010000C94F5020C94F5020C94FC0E0C94F50271
:100020000C94F5020C94F5020C94F5020C94F50274
:100030000C94F5020C94510A0C94F5020C94F50200
:100040000C94B9090C94F5020C94F5020C94F50289
:100050000C94F5020C94F5020C94F5020C94F50244
:100060000C94F5020C94F50251154B15441B711CB0
:10007000311FDB20D1216315661569156C156F15CD
:100080007215751578159015CF15ED15F9159A1689
:10009000F5161C17C91881818181818181819F9FFB
:1000A00081818181F9F9818181818F8F8181818134
:1000B000F1F18181818181898999999999919183BE
:1000C00083838181818181818181C1E1F1E3E3C702
:1000D000C78F8FC7C7E3E3F1F1E3E3C7C78F8FC7CC
:1000E000C7E3E3F1E1C183878F878181818199999A
:1000F00099998181818199BDBD9981818181C3C394
:10010000C3C3C381999999BDBD999999C3C3C3C309
:10011000C3E7E7E7E7E7C3C3C3C3E1E1E1E1F1F127
:10012000F1F9F9F9F1F1E3E3C7C78F8F8FC7C7C7BB
:1001300081E1F1F1E18181878F8F878783838181DD
:1001400081818181262B8254764BA7760414B6BA1E
:100150005DBA9E4830EAD6696A7301F7B7A76AADFF
:100160000C0CFB8F2C5A552DFD52626EBA06A55908
:100170008E721C139731F7612C4D5B6E648E19667D
:100180003D55169E56D8F5D435A66AC89ADBDCF6DE
:10019000B6B74D9DB466EEDED8B7AAA5C1C2B222ED
:1001A000AB867A2F8D912D6A94233DDB8EA8B0CB40
:1001B0004E2B390F00007E81A581A599817E3838AC
:1001C00010385410286C180848E0000C0C0000008F
:1001D0003C52FFFF6600FFFF00000800000E007C9D
:1001E00044407E025E00183C7EDBFF245AA50004DA
:1001F000000000002838000000000800000E244223
:1002000099999981423C00000000240027002A00AF
:1002100000000000250028002B0000000000230043
:100220002600290004040404040404040202020257
:1002300002020303030303030102040810204080A9
:100240000102040810200102040810200000000828
:10025000000201000003040700000000000000008D
:10026000A3C84D4D3C639FA2B434515F7BF393E52B
:1002700096A69A734F564AA954CD3D59C9A55A33EB
:10028000E7E425968AD9EC53E554AC66534E9D4A73
:100290009AA8CE594DCC6564366B74C957A1CBEC86
:1002A000D0EBA0A6E6B55DAF0297D83870BD0C5C68
:1002B000E21DCBF4D2519B4E2C35688B6B3691E40A
:1002C000C8A73015E5221E1BF4288614535DB3D64B
:1002D00003AA15242AD6E4B6B67913B15CB2F39317
:1002E00097A4663E75773EF2528DCD26F6CC7BDE26
:1002F0008A9A142DBAD2AC66DDEBDE8EB67A470D43
:10030000AF953A6DB19ADA8EED6C673A6EA54642BA
:10031000B1ED74273A6232C22376EA7F223611F5B4
:1003200006381CC800DF2939E07B56037CCDCA8023
:10033000CC831E00007E81A58199A5817E000000EE
:100340000017000300030A150A171F1D19041309DB
:1003500016090003000E110000110E150E15040EF3
:10036000041008000008080010001804031F111FE3
:10037000121F101D151711151F07041F17151D1F1C
:10038000151D01011F1F151F17151F000A00100A58
:1003900000040A00000A0A000A0400150207050703
:1003A0001E091E1F150A0E110A1F110E1F15111FFF
:1003B00005010E150D1F041F111F1108100F1F043A
:1003C0001B1F10101F021F1F081F0E110E1F0502FA
:1003D0000E111E1F0D12161509011F011F101F0FF0
:1003E000100F0F1E0F1B041B031C031915131F11E5
:1003F0000003041800111F02010210101000010276
:1004000009151A1F14081C140008141F0E151610C5
:100410001E1516150E1F0418001D0008100D1F08CC
:10042000140F10001E1E1C1E021C0C120C1E0A04AF
:10043000040A1E1E04020215080F12081C101C0CD0
:10044000100C0E1C0E140814120C02121A160608B8
:10045000DA75B58D874B4BBA5BDDE2E4494EA67386
:10046000BE9BEF6237BB9B4BDB821A5FC17C79F787
:10047000A7BFFE1F00F09080B795F700CC677542CC
:10048000595D3A4F9D3663B759DC305B5C2361F3AD
:10049000E21CF1F098C34B7D39CA1D2C2FB715EF24
:1004A0007079BCD2467C52E5F14A6AB37147C32DDC
:1004B00039344B2335B77A55338F59DCA244B5BC58
:1004C00066728B64F5F698C14D42D42762382F4A84
:1004D000B69C8868BCA695F85CA109867791115BEB
:1004E000FF0F183878D81818FFFF0E386E2500A3B4
:1004F0000D3AA037C5A0059E563586AA5E8CA4820B
:10050000B2D774312269AD1CD3C1D0FA282B2D4744
:10051000C31BC2C4AEC6CD9C48539AFF0F3C7EC3DA
:10052000061830FFFF02D82E9C01DBA63360FB309B
:1005300001EC20128CE4D8CA329673634139899851
:10054000C14D0DEDB02A05370FB4A5AE5CDC36D039
:10055000832F4A717B03F73859CDED1EB46B1435E8
:10056000B76B949991D5DC2648774B66711B21DBDC
:100570002D8AC96D88FC26283AB721F41FA365BCD3
:100580000238BB3D8EF02BE208B734FF0F3C7EC330
:100590000E0EC37E3C00A323972311241FBECFEF72
:1005A000D8E0DEBFCDBF14E0A0E0B1E0ECE6F1E5BD
:1005B00002C005900D92A233B107D9F726E0A2E35D
:1005C000B4E001C01D92A432B207E1F712E0CCEC16
:1005D000D2E004C02197FE010E948828CB3CD107BD
:1005E000C9F70E94D3130C94A9280C9400008330FF
:1005F00081F028F4813099F08230A1F0089587309D
:10060000A9F08830B9F08430D1F4809180008F7DDA
:1006100003C0809180008F7780938000089584B517
:100620008F7702C084B58F7D84BD08958091B0001E
:100630008F7703C08091B0008F7D8093B0000895C4
:100640008330910528F0880F991F04970197F1F7DF
:1006500008953FB7F89480914A0590914B05A09179
:100660004C05B0914D0526B5A89B05C02F3F19F04C
:100670000196A11DB11D3FBFBA2FA92F982F882722
:10068000820F911DA11DB11DBC01CD0143E0660F7C
:10069000771F881F991F4A95D1F708950895DC01A7
:1006A0001496ED91FC9115971C968C911C978823BC
:1006B00061F01A962D913C911B97621773072CF0ED
:1006C0001896ED91FC9119970AC020E030E007C020
:1006D0003097C9F00280F381E02D2F5F3F4F26173E
:1006E0003707B4F32617370771F481E01C968C9313
:1006F0001C971B963C932E931A971996FC93EE9396
:100700001897CF01089580E090E00895CF93DF938C
:10071000EC01E881F9810190F081E02DCE0109958D
:100720001816190644F4E881F9810684F785E02D4E
:10073000CE010995EECFDF91CF910895CF93DF934E
:1007400077FD0EC0FC01228133816217730744F4E8
:10075000EA010E944F03FC01D183C08381E001C004
:1007600080E0DF91CF910895FC018281938108950B
:100770000E944F03009721F0FC0180819181089530
:1007800080E090E008952F923F924F925F926F9297
:100790007F928F929F92AF92BF92CF92DF92EF9211
:1007A000FF920F931F93CF93DF93CDB7DEB76C9774
:1007B0000FB6F894DEBF0FBECDBF80912B0580939E
:1007C000B40090912A05992309F180912905891790
:1007D00020F48F5F8093290502C010922905E091D3
:1007E0002905E93288F5F0E0E751FC4FA08120911E
:1007F0002705309128050A2E000CBB0B0E948E287D
:10080000BB27A92F982F872FBC0120C0209104015E
:1008100030910501C90196958795A9014170552729
:1008200020FF02C040E058EB8427952790930501F4
:1008300080930401609127057091280580FD06C012
:1008400071956195710902C060E070E0E091230547
:100850000E2E000CFF0BC0902105D0902205409178
:10086000260520912405309125054203C001439FB0
:10087000900D1124880F892F881F990B681B790B05
:10088000EC9DC001ED9D900DFC9D900D1124880FF5
:10089000892F881F990B681B790B40912005042E26
:1008A000000C550B80901E0590901F05489DC001BF
:1008B000499D900D589D900D1124880F892F881FF8
:1008C000990B7B01E81AF90A60901D05062C000CB3
:1008D000770820901B0530901C05629CC001639C2A
:1008E000900D729C900D1124880F892F881F990BF1
:1008F0002701481A590A80911A05282F880F330BAF
:100900003A83298380911805909119059C838B83E4
:10091000DC012A9FC0012B9F900D3A9F900D11245E
:10092000880F892F881F990B9201281B390B3E8352
:100930002D8380911705A82F880FBB0BB887AF8335
:1009400020911505309116053A872987A29FC0018D
:10095000A39F900DB29F900D1124880F892F881F9F
:10096000990BAD81BE81A81BB90BBC87AB87809169
:100970001405282F880F330B3E872D878091120591
:1009800090911305988B8F87DC012A9FC0012B9FC4
:10099000900D3A9F900D1124880F892F881F990B75
:1009A0002B853C85281B390B3A8B298B80911105AF
:1009B000A82F880FBB0BBC8BAB8B20910F05309100
:1009C00010053E8B2D8BA29FC001A39F900DB29F5F
:1009D000900D1124880F892F881F990BA988BA8838
:1009E000A81AB90A80910D0590910E05988F8F8BEA
:1009F000A0910B05B0910C05BA8FA98F9C012A9F7D
:100A0000C0012B9F900D3A9F900D1124880F892FC4
:100A1000881F990B8501081B190B8091090590917E
:100A20000A059C8F8B8FA0910705B09108059C014A
:100A30002A9FC0012B9F900D3A9F900D1124880F83
:100A4000892F881F990B9801281B390BC901811523
:100A500032E093073CF481152EEF92072CF480E0EE
:100A60009EEF02C08FEF91E0E69F9001E79F300D6F
:100A7000F69F300D1124220F232F221F330B2C0D34
:100A80003D1D30932505209324054E9D90014F9DDB
:100A9000300D5E9D300D1124220F232F221F330BAA
:100AA000280D391D3093220520932105649C900167
:100AB000659C300D749C300D1124220F232F221FB2
:100AC000330B220D331D30931F0520931E054981E2
:100AD0005A816D817E81469F9001479F300D569FC0
:100AE000300D1124220F232F221F330BEB81FC81A9
:100AF0002E0F3F1F30931C0520931B054F815885F7
:100B00006B857C85469F9001479F300D569F300D29
:100B10001124220F232F221F330BE985FA852E0F74
:100B20003F1F30931905209318054D855E8569890F
:100B30007A89469F9001479F300D569F300D1124B2
:100B4000220F232F221F330BEF85F8892E0F3F1F13
:100B500030931605209315054B895C894A9D9001B9
:100B60004B9D300D5A9D300D1124220F232F221F33
:100B7000330B6D897E89260F371F30931305209321
:100B80001205EF89F88DE09F9001E19F300DF09FF5
:100B9000300D1124220F232F221F330B498D5A8D24
:100BA000240F351F3093100520930F056B8D7C8D1E
:100BB000689F9001699F300D789F300D1124220F9E
:100BC000232F221F330BA20FB31FB0930C05A0934A
:100BD0000B05909308058093070595958795959546
:100BE0008795805880932B056C960FB6F894DEBFDE
:100BF0000FBECDBFDF91CF911F910F91FF90EF906E
:100C0000DF90CF90BF90AF909F908F907F906F902C
:100C10005F904F903F902F9008958295982F9373F7
:100C200044E0949F900111248C7C86958695282B16
:100C3000822F8575880F2A7A2695822B0895CF9268
:100C4000DF92EF92FF920F931F93CF93DF93082FC2
:100C5000E0900405F0900505F70184910E940D06CF
:100C6000C82FD0E0DC2FCC2710910305C02ED12C4B
:100C7000C601810F911D099734F0F70131968491D7
:100C80000E940D06C82B012E02C0CC0FDD1F0A9456
:100C9000E2F720E130E02C193D09CE0102C0969523
:100CA00087952A95E2F7100F183018F41093030572
:100CB0000AC0185010930305FFEFEF1AFF0AF092D5
:100CC0000505E0920405DF91CF911F910F91FF90F0
:100CD000EF90DF90CF90089581E08093B80408955D
:100CE000CF92DF92EF92FF920F931F93CF93DF93F8
:100CF0009B01BA01DC0112964D915C911397241768
:100D0000350734F0ED91FC910480F581E02D09C0A8
:100D10002115310579F4DC01ED91FC910680F78114
:100D2000E02DDF91CF911F910F91FF90EF90DF9019
:100D3000CF9009947B01E9018C0184E090E00E944E
:100D4000F3236C01FC011182108213821282BE0116
:100D500061507109C8010E944F03D6011196FC929F
:100D6000EE92FC012281338113963C932E931297CD
:100D7000D382C282D80112968D919C9113970196CD
:100D800013969C938E9312971C961C9281E0DF9190
:100D9000CF911F910F91FF90EF90DF90CF9008952A
:100DA000EF92FF920F931F93CF93DF93DC01129684
:100DB0000D911C9113970115110561F4ED91FC91B2
:100DC0000480F581E02DDF91CF911F910F91FF906D
:100DD000EF9009947B01EC0184E090E00E94F32302
:100DE0002C813D81FC0133832283F182E0829D834B
:100DF0008C830F5F1F4F1B830A831C8681E0DF916A
:100E0000CF911F910F91FF90EF9008950F931F9333
:100E1000CF93DF93EC018B0184E090E00E94F323F9
:100E2000FC0113821282118300832C813D81232BCC
:100E300029F0EE81FF819383828302C09D838C839E
:100E40009F838E838A819B8101969B838A831C86E4
:100E500081E0DF91CF911F910F910895EF92FF9262
:100E60000F931F93CF93DF93FC016281738116165A
:100E7000170664F5EC01148661307105C1F062500B
:100E800071090E944F037C01FC0182819381FC0166
:100E9000008111810E948824F70113821282FF824F
:100EA000EE828A819B8101979B838A830DC0848116
:100EB0009581FC01008111810E9488241D821C8281
:100EC0001F821E821B821A82C80102C080E090E04D
:100ED000DF91CF911F910F91FF90EF900895EF92C6
:100EE000FF920F931F93CF93DF93DC0112962D9106
:100EF0003C9113971216130624F521303105A1F009
:100F0000EC01EC81FD81E280F38000811181CF0151
:100F10000E948824FD82EC828A819B8101979B83B9
:100F20008A831C86C8010FC0DC01ED91FC9104840A
:100F3000F585E02DDF91CF911F910F91FF90EF90FC
:100F4000099480E090E0DF91CF911F910F91FF9085
:100F5000EF9008950F931F93CF93DF9377FD3EC0DB
:100F6000DC0112962D913C91139762177307B4F52B
:100F70006115710531F4ED91FC910684F785E02D42
:100F80000BC0215031096217730759F4DC01ED9150
:100F9000FC910484F585E02DDF91CF911F910F9195
:100FA0000994EC01615071090E944F03DC01129613
:100FB000ED91FC9113970081118122813381139669
:100FC0003C932E931297CF010E9488248A819B81A3
:100FD00001979B838A831C86C80102C080E090E051
:100FE000DF91CF911F910F910895CF93DF9300D0A0
:100FF00000D0CDB7DEB7611571058105910579F097
:101000009B01AC0169833A834B835C830E94CA25B0
:1010100029813A814B815C810E94D82503C060E020
:1010200070E0CB010F900F900F900F90DF91CF9158
:101030000895CF93DF93282F30E0F901E45BFD4F53
:101040008491F901E85CFD4FD491F901EC5DFD4F0D
:10105000C491CC2391F081110E94F702EC2FF0E0B3
:10106000EE0FFF1FE65EFD4FA591B491EC91ED23CD
:1010700081E090E021F480E002C080E090E0DF9128
:10108000CF9108951F93CF93DF93282F30E0F9017C
:10109000E45BFD4F8491F901E85CFD4FD491F901C7
:1010A000EC5DFD4FC491CC23C9F0162F81110E9435
:1010B000F702EC2FF0E0EE0FFF1FE05FFD4FA59170
:1010C000B4918FB7F894111105C09C91ED2FE09564
:1010D000E92302C0EC91ED2BEC938FBFDF91CF9110
:1010E0001F910895CF93DF9390E0FC01E85CFD4FE2
:1010F0002491FC01EC5DFD4F8491882361F190E027
:10110000880F991FFC01EA5FFD4FC591D491FC0146
:10111000E05FFD4FA591B491611109C09FB7F894AC
:101120008881209582238883EC912E230BC0623026
:1011300061F49FB7F8943881822F80958323888348
:10114000EC912E2B2C939FBF06C08FB7F894E881AB
:101150002E2B28838FBFDF91CF9108958F929F927E
:10116000AF92BF92CF92DF92EF92FF926B017C0120
:101170000E9429034B015C01C114D104E104F10474
:10118000F1F00E942903DC01CB0188199909AA0911
:10119000BB09883E9340A105B10570F321E0C21A56
:1011A000D108E108F10888EE880E83E0981EA11CA2
:1011B000B11CC114D104E104F10419F7DDCFFF9093
:1011C000EF90DF90CF90BF90AF909F908F90089559
:1011D0002FB7F894609146057091470580914805B6
:1011E000909149052FBF08958F929F92AF92BF9221
:1011F000CF92DF92EF92FF920F931F93CF93DF93E3
:101200008091E305882331F01092E30510920701E5
:1012100010920601C0910601D0910701CE31D1058F
:101220000CF052C0BE010D2E000C880B990B0E94D1
:10123000572720E030E840EC54E40E94072820E0E3
:1012400030E040EF51E40E94AD2620E030E04CE574
:1012500053E40E943C260E941F279B01770F440BFA
:10126000550B60E472E48FE090E00E94D82569019C
:10127000890137FF02C00F5F1F4F15950795812C1D
:10128000912C54010D2C000CEE08FF0861E083E066
:101290000E944208C8010E94200360E083E00E948F
:1012A0004208C8010E9420038C0C9D1CAE1CBF1C70
:1012B00088EE881683E09806A104B1043CF32196D9
:1012C000D0930701C09306018091310581110DC0B3
:1012D0000E94E80860932D0570932E0580932F05DA
:1012E0009093300581E080933105C0912C05D0E0CA
:1012F000FE01EE5EFB4F60E080810E94420827966F
:10130000C770DD27C0932C0589EEE82E82E0F82E09
:101310006E0193E0CC0CDD1C9A95E1F708E010E03B
:10132000F801EC0DFD1DE757FA4F8081813011F473
:1013300060E001C061E0F70180810E944208015035
:101340001109FFEFEF1AFF0A0115110549F7CE5EEB
:10135000DB4F61E08881DF91CF911F910F91FF906A
:10136000EF90DF90CF90BF90AF909F908F900C94B4
:1013700042081F920F920FB60F9211242F933F93A2
:101380008F939F93AF93BF938091460590914705AC
:10139000A0914805B09149053091450526E0230FFD
:1013A0002D3720F40296A11DB11D05C029E8230F99
:1013B0000396A11DB11D209345058093460590938A
:1013C0004705A0934805B093490580914A0590913F
:1013D0004B05A0914C05B0914D050196A11DB11D85
:1013E00080934A0590934B05A0934C05B0934D050F
:1013F000BF91AF919F918F913F912F910F900FBE11
:101400000F901F9018951F920F920FB60F921124F4
:101410002F933F934F935F936F937F938F939F93FC
:10142000AF93BF93EF93FF93E0910201F09103011B
:101430000995FF91EF91BF91AF919F918F917F910E
:101440006F915F914F913F912F910F900FBE0F9031
:101450001F9018951F920F920FB60F9211242F9381
:101460003F934F935F936F937F938F939F93AF932C
:10147000BF93EF93FF93E0910001F0910101099573
:10148000FF91EF91BF91AF919F918F917F916F915C
:101490005F914F913F912F910F900FBE0F901F9032
:1014A00018951F920F920FB60F9211242F933F930E
:1014B0004F935F936F937F938F939F93AF93BF935C
:1014C000EF93FF93E0914305F09144050995FF9157
:1014D000EF91BF91AF919F918F917F916F915F91AC
:1014E0004F913F912F910F900FBE0F901F90189525
:1014F000CF93DF93EC018EE194E099838883EC81B4
:10150000FD81309741F0828193819D838C83CF014F
:101510000E948824F4CFDF91CF910895FC018EE1E1
:1015200094E091838083158214821782168213823D
:101530001282118610861386128614860895AF9241
:10154000BF92CF92DF92EF92FF920F931F93CF93B0
:10155000DF93E0917004F0917104EE0FFF1FE552EC
:10156000FD4F00811181B4E0440F551FBA95E1F79A
:10157000EB015B01E0E0F0E020E030E06F01C40E41
:10158000D51EB7FC11C07901EC0CFD1CE00EF11E5C
:10159000D701FC901F1444F47901E80EF91EB8E05D
:1015A000EB16F10408F044C02F5F3F4F24303105A3
:1015B00041F734962FEFA21AB20AE031F105E1F6B5
:1015C000660F771F660F771F20E030E0D7FD27C03A
:1015D000D901A60FB71FAA0FBB1F5D01A80EB91E28
:1015E000E0E0F0E06901C40ED51E7F01EC0CFD1CAB
:1015F000E00EF11ED701FC901F146CF4C830D10529
:10160000BCF47F01EA0CFB1CD701A858BB4FFC902F
:10161000B1E0FB1669F03196E430F10531F721961F
:101620002C5F3F4F2031310589F681E090E002C008
:1016300080E090E0DF91CF911F910F91FF90EF90AC
:10164000DF90CF90BF90AF9008956F927F928F926E
:101650009F92BF92CF92DF92EF92FF920F931F93D0
:10166000CF93DF93E0917004F0917104EE0FFF1FB0
:10167000E552FD4F00811181E0917604F0917704ED
:101680004F0124E0880C991C2A95E1F7A09172047F
:10169000B09173046091740470917504EB01CC0FE8
:1016A000DD1FCC0FDD1F20E030E0A9014C0F5D1FD6
:1016B000440F551F3A016A0E7B1E80E090E06901DD
:1016C000C80CD91C69307105C8F47C01EA0EFB1EF8
:1016D00049E0E416F10490F47C01EC0CFD1CE00EF2
:1016E000F11EF701B080F1E0BF1208C07C01E60CEA
:1016F000F71CA70148585B4FFA01B082019684306D
:10170000910501F76F5F7F4F2C5F3F4F203131050F
:1017100061F6DF91CF911F910F91FF90EF90DF90D5
:10172000CF90BF909F908F907F906F9008958F92F1
:101730009F92AF92BF92CF92DF92EF92FF920F9360
:101740001F93CF93DF93E0917004F0917104EE0F3B
:10175000FF1FE552FD4F00811181E0917604F09169
:1017600077045F0124E0AA0CBB1C2A95E1F7A09145
:101770007204B09173046091740470917504EB016C
:10178000CC0FDD1FCC0FDD1F20E030E0A9014C0F96
:101790005D1F440F551F4A018A0E9B1E80E090E09A
:1017A0006901CA0CDB1C69307105C8F47C01EA0EC2
:1017B000FB1E49E0E416F10490F47C01EC0CFD1CE6
:1017C000E00EF11EF701F080F1E0FF1208C07C018D
:1017D000E80CF91CA70148585B4FFA0110820196EA
:1017E0008430910501F76F5F7F4F2C5F3F4F2031B1
:1017F000310561F6DF91CF911F910F91FF90EF902E
:10180000DF90CF90BF90AF909F908F9008950F93EF
:101810001F93CF93DF938091080187300CF1CCE3C5
:10182000D5E007E010E00E946C25B8010E94742802
:10183000ECE3F5E0AF014F5F5F4FEC17FD0749F0B8
:101840002081FA01022E000C330B2817390791F77B
:10185000EACF8083EA014354554029F710920801EA
:10186000E091080181E08E0F809308010E2E000C9C
:10187000FF0BE45CFA4F8081082E000C990B9093CB
:101880007104809370048CEF9FEF909375048093A4
:10189000740483E090E09093730480937204109238
:1018A000770410927604DF91CF911F910F910895E4
:1018B000E1E8F0E080E180831092800081E0809395
:1018C0003B0524E13EE130933A05209339053093FE
:1018D00087002093860091E1908324EF38E03093D5
:1018E00044052093430580936F0008952AE835E06E
:1018F00080E090E0F901E80FF91F1082019688302E
:101900009105C1F7285F3F4F85E02A3C380781F7F2
:1019100008950E94760C20E030E061E080E090E0E5
:10192000AC01420F531FFA01E858FB4F7081772337
:1019300021F0FA01E657FA4F60830196883091054D
:1019400079F7285F3F4F2034310541F708950F9311
:101950001F93CF93DF938C018AE0809FE001819FEA
:10196000D00D11241C161D06D4F461E083E00E9402
:101970004208C8010E94200360E083E00E94420800
:101980006BE271E080E090E00E94F507DC01CB01A2
:101990000196A11DB11D0E9420032A97E3CFDF917C
:1019A000CF911F910F910895CF93DF93EC0167E0E2
:1019B00070E080E090E00E94F5077B836A831D82DF
:1019C0001C8263E070E080E090E00E94F507DC019B
:1019D000CB010197A109B1099F838E8381E090E03B
:1019E00099878887DF91CF9108951092B000109267
:1019F000B100109270001092060510926F0060E026
:101A000083E00C944208CF93DF93C9EED2E061E00B
:101A100089910E94420882E0C13FD807C1F780E166
:101A2000809381001092800081E080933B0524EF39
:101A300031E030933A0520933905309387002093A5
:101A4000860091E19093810023EC33E030934405CC
:101A50002093430580936F0093E29093B0008093AE
:101A6000B1001092700080930605DF91CF91089528
:101A70001F93CF93DF93EC0110926F000E94030D30
:101A800080910605811102C00E94030DD0930505C7
:101A9000C09304051092030584E00E941F06C82F1E
:101AA000811105C01092280510922705A9C08F301A
:101AB000E9F4109228051092270510920A05109259
:101AC000090510920E0510920D0510921105109245
:101AD00014051092170510921A0510921D05109208
:101AE000200510922305109226058AC0E82FF0E009
:101AF000E752FC4F808190E0909328058093270562
:101B000081E00E941F06182F86E00E941F06E82F22
:101B1000F0E0E756FC4FD081D0932A05111170C038
:101B200085E00E941F06E82FF0E0E758FC4F808117
:101B3000082E000C990B90930A058093090585E007
:101B40000E941F06E82FF0E0E75AFC4F8081082E24
:101B5000000C990B90930E0580930D0584E00E9474
:101B60001F06E82FF0E0E75BFC4F808180931105B2
:101B700084E00E941F06E82FF0E0E75CFC4F8081C4
:101B800080931405DD23E1F184E00E941F06E82F15
:101B9000F0E0E75DFC4F80818093170584E00E94B0
:101BA0001F06E82FF0E0E75EFC4F808180931A0566
:101BB00084E00E941F06E82FF0E0E75FFC4F808181
:101BC00080931D0583E00E941F06E82FF0E0EF5F81
:101BD000FC4F80818093200583E00E941F06E82F40
:101BE000F0E0E750FD4F80818093230583E00E9461
:101BF0001F06E82FF0E0EF50FD4F8081809326050F
:101C000069E170E080E090E00E94AE08CF3009F01A
:101C100043CF0E94F50CDF91CF911F910C94580C8B
:101C20008F929F92AF92BF92EF92FF920F931F936A
:101C3000CF93DF9310920205109265041092640412
:101C400083E090E0909369048093680484E090E0DE
:101C500090936B0480936A0410926C0410926D044C
:101C600010926E0410926F04109267041092660432
:101C7000C4E3D4E000E010E087E0882E912CA12C92
:101C8000B12CEE24E394F12C0E94CA25A501940105
:101C90000E94D825798368831B830A83FD82EC82A6
:101CA0000F5F1F4F26960830110571F782E090E014
:101CB00090933504809334041092390410923804C0
:101CC00085E090E0909347048093460410924B0483
:101CD00010924A0410925F0410925E041092630402
:101CE0001092620487E090E0909333048093320472
:101CF000DF91CF911F910F91FF90EF90BF90AF9028
:101D00009F908F900895CF93DF930E94760C20913F
:101D100066043091670480916A0490916B04A90174
:101D2000481B590B60916804709169046830710513
:101D300010F5CA0107968830910560F4FC01A3E014
:101D4000EE0FFF1FAA95E1F7E60FF71FE657FA4FD0
:101D500081E08083CA0108968830910560F4E3E051
:101D6000880F991FEA95E1F7860F971FFC01E65748
:101D7000FA4F81E08083A4E3B4E041E08D919C912F
:101D8000119712966D917C9113971496ED91FC9199
:101D90001597EF2B89F4F901E61BF70B379688307E
:101DA000910518F4E830F10578F001968830910536
:101DB00018F4E830F105A0F0169684E0A436B807D0
:101DC000E9F6DF91CF910895EF0163E0CC0FDD1FBD
:101DD0006A95E1F7C80FD91FC657DA4F4883E5CF98
:101DE00053E0EE0FFF1F5A95E1F78E0F9F1FFC0186
:101DF000E657FA4F4083E0CF18954F925F926F926B
:101E00007F928F929F92AF92BF92CF92DF92EF928A
:101E1000FF92CF93DF93FA01ACEBB2E09B01AC01F0
:101E20000E94F7254B015C01BF01FF0F880B990B46
:101E30000E9457279B01AC0160E070E080E89FE3BF
:101E40000E94AD2620E034E244E759E40E940728CE
:101E50000E941F276B01EB0177FD2196D595C79551
:101E6000412C512C32010D2C000CEE08FF084814B7
:101E700059046A047B049CF461E083E00E944208F8
:101E8000CE010E94200360E083E00E944208CE0160
:101E90000E9420034C0C5D1C6E1C7F1CE8CFDF9160
:101EA000CF91FF90EF90DF90CF90BF90AF909F9039
:101EB0008F907F906F905F904F9008950F931F9336
:101EC000CF93DF93EC018B0184E090E00E94F32339
:101ED000FC0111830083D383C283BC0185EF95E0AD
:101EE000DF91CF911F910F910C9406070F931F93D1
:101EF000CF93DF93EC018B0184E090E00E94F32309
:101F0000FC0111830083D383C283BC018CEC95E078
:101F1000DF91CF911F910F910C9406070F931F93A0
:101F2000CF93DF93EC012E813F818A819B81820FC9
:101F3000931F9B838A836C817D8148855985460FD9
:101F4000571F5D834C8387309105A8F0181619063A
:101F50000CF050C087E090E09B838A8331952195F7
:101F600031093F832E8344EC59E065E070E080E066
:101F700090E00E94FD0E8C819D8197FF13C081E04F
:101F800090E09D838C8388859985919581959109B1
:101F9000998788874CED55E065E070E080E090E03F
:101FA0000E94FD0E8C819D818630910589F580917E
:101FB000E4059091E50501969093E5058093E4058D
:101FC00081E08093E30588859985019731F54091FB
:101FD000E9055091EA052091F0053091F105240FB3
:101FE000351F6A817B81641775073CF062177307A0
:101FF000BCF003C081E090E0AFCF8E819F81860F5F
:10200000971F841795074CF08217930764F005C05B
:10201000079719F401E010E041C002E010E03EC073
:1020200000E010E002C001E010E086E090E09D8357
:102030008C838FEF9FEF9987888701151105E9F44D
:1020400063E070E080E090E00E94F507DC01CB01E6
:102050000197A109B109288139812817390781F32E
:10206000998388839F838E8348E55BE165E070E018
:1020700080E090E00E94FD0E11C08E819F819195BD
:10208000819591099F838E8340ED57E065E070E074
:1020900080E090E00E94FD0E00E010E0C801DF91BA
:1020A000CF911F910F9108950F931F93CF93DF93BB
:1020B0008C01C0E0D0E00C171D0754F160E070E027
:1020C000CE010E94760F61E070E0CE010E94760F93
:1020D00062E070E0CE010E94760F63E070E0CE0116
:1020E0000E94760F64E070E0CE010E94760F65E0FA
:1020F00070E0CE010E94760F66E070E0CE010E9493
:10210000760F67E070E0CE010E94760F2196D3CF64
:10211000DF91CF911F910F9108950F931F93CF934C
:10212000DF93AAE8B5E060E070E011E020E030E085
:10213000FC01E60FF71F449150E0CC27DD27C21BBE
:10214000D30B02C055954795CA95E2F7ED01C20F32
:10215000D31F40FF02C01F8301C01F8221503109DD
:10216000283F4FEF340739F76F5F7F4F189668307D
:102170007105E1F6DF91CF911F910F910895409184
:10218000F0055091F1052091EB053091EC0583E0CD
:10219000220F331F8A95E1F78091E9059091EA05B6
:1021A000280F391F80E090E061E08417950744F420
:1021B000FC01E20FF31FE657FA4F60830196F5CF5B
:1021C00008950E94760C0E94760C0E94030D0E94D6
:1021D000580C8DE895E00E948D106CE271E080E073
:1021E00090E00E94AE0885E295E00E94380D8DE1F6
:1021F00095E00E948D106CE271E080E090E00E941A
:10220000AE088AEE94E00E94380D82EE94E00E94BF
:102210008D106CE271E080E090E00E94AE088CE7E7
:1022200094E00E94380D84E794E00E948D106CE2E7
:1022300071E080E090E00E94AE088EE494E00E949D
:10224000380D0E94760C0E94F50C0E94580C0C94DC
:10225000760CAF92BF92CF92DF92EF92FF920F93E4
:102260001F93CF93DF938C01EB0157FF02C04D5FAB
:102270005F4F6A01D594C794D594C7940D2C000C78
:10228000EE08FF08A12CB12CAC16BD06CCF4C80199
:102290000E948D10C701B6010E94AE0848E253E2C9
:1022A0006EE170E080E090E00E94FD0E0E94760CEE
:1022B000C701B6010E94AE088FEFA81AB80AE4CF92
:1022C000C091E405D091E5050E94760CCE016AE04C
:1022D00070E00E9474289B01220F331F620F731F4E
:1022E0009C01220F331F820F931FEB01C359DC4F58
:1022F000A0E0B0E0861B970B11E0FE014491FC01C9
:10230000EC0FFD1F6491FD01EE56FA4F20E030E026
:1023100050E070E0022F7A01022E02C0F594E7949B
:102320000A94E2F7E0FC10837B0102C0F594E79485
:102330000A95E2F7E0FC14832F5F3F4F3896253073
:10234000310541F711962196A330B105B1F668EE3B
:1023500073E080E090E0DF91CF911F910F91FF90AB
:10236000EF90DF90CF90BF90AF900C94AE08CF93DA
:10237000DF938AE090E0A0E0B0E0809309019093C1
:102380000A01A0930B01B0930C0181E090E09093BF
:10239000F1058093F005CFE7D5E0198618860E94F5
:1023A000E8086C837D838E839F83DF91CF910895AE
:1023B000CF93DF93CEE6D5E01982188288EC90E0C7
:1023C000A0E0B0E08093090190930A01A0930B0173
:1023D000B0930C016EEE72E080E090E00E94F50791
:1023E000DC01CB0186509F4FAF4FBF4F9B838A8349
:1023F00066E070E080E090E00E94F507DC01CB0130
:102400000196A11DB11D9A8789871C861B86DF91C5
:10241000CF9108958EE495E00E94780A8EE495E0CD
:102420000E94860384E690E00E94A70C44EF51E0EE
:1024300064E070E085E393E00E9429110C940000B1
:102440000C94B7110F931F93CF93DF93CDB7DEB7E3
:102450002D970FB6F894DEBF0FBECDBF83E090E09E
:102460009093F1058093F00587E090E09093EC0560
:102470008093EB0582E390E0A0E0B0E08093090157
:1024800090930A01A0930B01B0930C0181E090E0BE
:1024900090931B0680931A0610921F0610921E0638
:1024A000CE0101960E948E0A8B819C819093F80543
:1024B0008093F7058D819E819093FA058093F905AD
:1024C0008F8198859093FC058093FB0589859A857B
:1024D0009093FE058093FD058B859C859093000667
:1024E0008093FF058D8580930106CE0101960E94A1
:1024F000780A009102061091030661E070E080E026
:1025000090E00E945E0F63E070E080E090E00E9447
:102510005E0F65E070E080E090E00E945E0F62E098
:1025200070E081E090E00E945E0F64E070E081E086
:1025300090E00E945E0F66E070E081E090E00E9413
:102540005E0F8EEE92E09093150680931406023093
:1025500011059CF161E070E082E090E00E945E0F66
:1025600063E070E082E090E00E945E0F65E070E062
:1025700082E090E00E945E0F81E792E09093150662
:102580008093140602301105C1F062E070E083E030
:1025900090E00E945E0F64E070E083E090E00E94B3
:1025A0005E0F66E070E083E090E00E945E0F84EFD3
:1025B00091E090931506809314060E94E8086093BA
:1025C00016067093170680931806909319062D9699
:1025D0000FB6F894DEBF0FBECDBFDF91CF911F9134
:1025E0000F910895EF92FF920F931F93CF93DF9374
:1025F00068E070E080E090E00E94F5078B0168E001
:1026000070E080E090E00E94F507EB01E12CF12CF6
:1026100080915005909151050197E816F906A4F4B0
:10262000B7018EE495E00E94B803FC01208131815E
:102630002017310729F4828193818C179D07C1F2FD
:10264000FFEFEF1AFF0AE4CF1093600500935F05D8
:10265000D0936205C0936105DF91CF911F910F91D7
:10266000FF90EF900895CF93DF93809104069091AF
:1026700005060E9488241092050610920406809197
:102680000606909107060E94882410920706109271
:1026900006068091F7059091F805C817D9074CF404
:1026A000BE0185EF95E00E94B8030E948824219620
:1026B000F0CF85EF95E00E94860385EF95E0DF91EE
:1026C000CF910C94780A8CE291E00E94A70C81EDE6
:1026D00092E00E94380D80E692E00E94380D0E9440
:1026E000331344EF51E064E070E085E393E00E942F
:1026F000291181E090E090930306809302060C94E8
:1027000000000C94B711CF93DF93EC018091E905A1
:102710009091EA050196288139812817390761F4DB
:102720008091EB059091EC0501972A813B81281758
:10273000390711F40E9463132A813B818091EB05D4
:102740009091EC0528173907B1F42881398140911F
:10275000E9055091EA05241735076CF08091F005E2
:102760009091F105840F951F2817390724F4DF9104
:10277000CF910C946313DF91CF910895CF93DF93A2
:102780008091CE059091CF05C817D9074CF4BE01B2
:102790008CEC95E00E94B8030E9488242196F0CF2B
:1027A000DF91CF910895CF93DF93CDB7DEB72D970B
:1027B0000FB6F894DEBF0FBECDBF789484B58260AB
:1027C00084BD84B5816084BD85B5826085BD85B5D5
:1027D000816085BD80916E00816080936E00109253
:1027E00081008091810082608093810080918100CE
:1027F000816080938100809180008160809380005F
:102800008091B10084608093B1008091B0008160BC
:102810008093B00080917A00846080937A008091E8
:102820007A00826080937A0080917A008E7F809314
:102830007A0080917A00806880937A001092C100BB
:1028400080E480937C0080917A00806480937A0099
:1028500080917A0086FDFCCF6091780080917900AC
:1028600070E0782B072E000C880B990B6115710511
:102870008105910511F00E94CF2510E061E0812FC4
:102880000E9472081F5F1231C9F70E94760C0E94E5
:10289000580C0E94B7118CE696E09093010180934A
:1028A0000001809169008C7F826080936900E89AC2
:1028B0000E94E8086093FE047093FF048093000573
:1028C0009093010548E95AE362E370E080E090E00C
:1028D0000E94FD0E42E0242E312C412C512C0091FF
:1028E000E9051091EA0583E10E941908892BB9F4E2
:1028F0000E94E808C090BD04D090BE04E090BF04E0
:10290000F090C004DC01CB018C199D09AE09BF0910
:10291000883C9105A105B10510F00C94CA2282E112
:102920000E941908892BB9F40E94E808C090B904E4
:10293000D090BA04E090BB04F090BC04DC01CB0161
:102940008C199D09AE09BF09883C9105A105B10507
:1029500010F00C94EE221093EA050093E90583E150
:102960000E94190821E0892B09F020E02093ED0551
:1029700082E10E94190821E0892B09F020E02093D0
:10298000EE0582E00E94190821E0892B09F020E081
:102990002093EF058091E6053091ED05882311F035
:1029A00081E083278093F2058091E7059091EE0501
:1029B000882311F081E089278093F3058091E80551
:1029C000882311F081E082278093F4053093E60597
:1029D0009093E7052093E8050E94E8080091FE0423
:1029E0001091FF042091000530910105DC01CB011D
:1029F000801B910BA20BB30B80329E44A105B10545
:102A000010F00C940A238091FD04813071F40C9431
:102A10000A230E94580C0E94E8086093FE047093F9
:102A2000FF0480930005909301050E94E80800913F
:102A3000F9041091FA042091FB043091FC04DC01AC
:102A4000CB01801B910BA20BB30B009109011091DC
:102A50000A0120910B0130910C01081719072A0770
:102A60003B0710F00C94C0220E94E8086093F90420
:102A70007093FA048093FB049093FC04E091870523
:102A8000F0918805E730F10510F00C94C022EC5C61
:102A9000FF4F0C94882803EE14E07801C12CD12C50
:102AA00004C581E090E09093F1058093F0050091DA
:102AB000E9051091EA0508301105F0F4F801E55C2C
:102AC000FF4F0C94882886EF91E014C08EEE91E0C1
:102AD00011C086EE91E00EC08EED91E00BC086ED48
:102AE00091E008C08EEC91E005C086EC91E002C058
:102AF0008EEB91E00E948D108091EF05882311F4F8
:102B00000C94C0221092E5051092E40508301105DE
:102B100010F00C94C022F801ED5BFF4F0C94882854
:102B200081E090E090938805809387050E94E110F2
:102B300088EC90E0A0E0B0E08093090190930A0156
:102B4000A0930B01B0930C0183E090E09093F1050A
:102B50008093F00527E030E03093EC052093EB05FF
:102B60001092E4041092E30422E030E03093F20487
:102B70002093F1049093F4048093F30425E030E073
:102B80003093F6042093F5049093F8048093F704AF
:102B90001092F0041092EF0485EE94E022C182E0DE
:102BA00090E090938805809387050E94E11083E070
:102BB00090E09093F1058093F00587E090E090938A
:102BC000EC058093EB0588EC90E09093760580937C
:102BD00075050E94D8110C94C02283E090E0909378
:102BE0008805809387050E94E1100E9422120C94B0
:102BF000C02204E010E010938805009387050E942E
:102C0000E1100E94E8086093660570936705809361
:102C10006805909369058EEE92E0A0E0B0E08093A5
:102C20006A0590936B05A0936C05B0936D05CE017A
:102C300001960E948E0A8B819C819093510580930E
:102C400050058D819E8190935305809352058F810D
:102C50009885909355058093540589859A8590931E
:102C60005705809356058B859C85909359058093D5
:102C700058058D8580935A05CE0101960E94780AE9
:102C800084E090E00E94F323FC011183008313830E
:102C90000283BC018EE495E00E94060784E090E088
:102CA0000E94F32325E030E0DC0111963C932E9343
:102CB00013961C930E931297BC018EE495E00E942C
:102CC000060784E090E00E94F32326E030E0FC0158
:102CD0003183208313830283BC018EE495E00E943C
:102CE000060784E090E00E94F32327E030E0DC0157
:102CF00011963C932E9313961C930E931297BC013E
:102D00008EE495E00E9406078FEF9FEF90935C059D
:102D100080935B0510925E0510925D050E94F21291
:102D20001092630581E090E09093650580936405BF
:102D30000C94C02285E090E09093880580938705ED
:102D40000E94E11088EC90E0A0E0B0E080930901DF
:102D500090930A01A0930B01B0930C0183E090E0E3
:102D60009093F1058093F00587E090E09093EC0557
:102D70008093EB0581E090E09093CB058093CA05AA
:102D8000CE0101960E948E0A8B819C819093CF0583
:102D90008093CE058D819E819093D1058093D0053F
:102DA0008F8198859093D3058093D20589859A85E4
:102DB0009093D5058093D4058B859C859093D705FA
:102DC0008093D6058D858093D805CE0101960E940B
:102DD000780A8091CA059091CB050E94541089ED24
:102DE00095E00E94D40C0C94C02286E090E0909371
:102DF0008805809387050E94E11088EC90E090930D
:102E0000E0048093DF041092D3041092D2048EEA7F
:102E100090E09093D5048093D40484E090E0909364
:102E2000D7048093D6041092D9041092D80481E07C
:102E30008093DE040C94C02262E082E00E9472085B
:102E400062E082E10E94720862E083E10E947208FF
:102E5000E8E7F4E01192B4E0E83BFB07D9F70E9401
:102E6000070C0E94E8086093CD047093CE04809311
:102E7000CF049093D0046093C9047093CA048093E4
:102E8000CB049093CC041092C80434E0832E912C90
:102E9000DD24D3948091C80481110C94C0220E9437
:102EA000E8080091CD041091CE042091CF04309118
:102EB000D004DC01CB01801B910BA20BB30B853638
:102EC0009105A105B10508F483C00E94E80860934C
:102ED000CD047093CE048093CF049093D0040E94CD
:102EE000970B83E10E9419088C0182E10E94190866
:102EF000892B41F091E080E0012B09F090E0092F4F
:102F0000182F02C00FEF1FEF8091C2049091C304ED
:102F100008171907A9F0E0907204F0907304E00E0E
:102F2000F11E409176045091770460917404709181
:102F30007504C7010E949F0A019711F40C94822323
:102F40001093C3040093C20482E00E94190818166B
:102F500019066CF431E020E04091C6045091C7049A
:102F60004817590709F430E0032F122F02C000E080
:102F700010E09093C7048093C6040130110501F559
:102F80008091C4049091C5040197D1F0809176049A
:102F9000909177040196B4010E9474287C0160919D
:102FA000740470917504AC01809172049091730463
:102FB0000E949F0A892B21F0F0927704E092760418
:102FC0001093C5040093C4040E94250B0E94890C31
:102FD0000E94E8080091C9041091CA042091CB0412
:102FE0003091CC04DC01CB01801B910BA20BB30B05
:102FF000893E9340A105B10508F44CCF0E94E80832
:103000006093C9047093CA048093CB049093CC045A
:103010000E94970B00917404109175040F5F1F4F6D
:103020004091760450917704B80180917204909198
:1030300073040E949F0A892B39F010937504009342
:1030400074040E94250BA2C0D092E3050E94250BB8
:1030500000E010E0E12CF12C20E030E080E090E096
:10306000FC01E00FF11FE858FB4F4081141614F4E7
:103070002F5F3F4F01968830910591F72830310539
:10308000D9F584E690E00E94A70CA70120E030E08B
:103090005801F8E0AF1AB10841155105E9F0415067
:1030A000510980E090E0D501A20FB31FB901600F74
:1030B000711FFC01EA0FFB1FE858FB4FC080FC01A9
:1030C000E60FF71FE858FB4FC08201968830910544
:1030D00081F728503109E0CFE8E7F4E0119224E0CD
:1030E000E038F207D9F78091E4059091E505019663
:1030F0009093E5058093E4054FEFE41AF40A085F26
:103100001F4F58E0E516F10409F0A6CFE0917004D6
:10311000F0917104EE0FFF1FE552FD4F0081118108
:10312000409176045091770424E0440F551F2A956E
:10313000E1F7609174047091750480E090E020E004
:1031400030E0DC01A40FB51FF901EA0FFB1FE00F0F
:10315000F11FE0811E1614F477FD0CC02F5F3F4F66
:103160002430310589F76F5F7F4F049680319105D8
:1031700031F70AC044EF51E064E070E085E393E08A
:103180000E942911D092C8040E94070C0E94890C49
:1031900081CE0E94760C0E94100E0E94830E82E166
:1031A0000E941908892B19F083E10E9419086BE429
:1031B00070E080E090E00E94AE0881E08093D1044E
:1031C00018E0E12EF12C01E016E066246394712CE6
:1031D0008091D104882311F40C94C02282E10E94D2
:1031E0001908892BB1F480916804909169040796BD
:1031F000B7010E94742890936904809368040E9428
:10320000E8086093FE047093FF0480930005909398
:10321000010583E10E941908892BB1F480916804AB
:10322000909169040196B7010E94742890936904F3
:10323000809368040E94E8086093FE047093FF0482
:1032400080930005909301052DEC3CEC4CEC5EE383
:1032500060916C0470916D0480916E0490916F0484
:103260000E943B264B015C0160936C0470936D04DB
:1032700080936E0490936F0460916A0470916B0464
:10328000072E000C880B990B0E945727A50194016B
:103290000E943C260E941F276B0170936B04609371
:1032A0006A0420E030E0A901C501B4010E94A8260B
:1032B00018160CF447C06091660470916704409141
:1032C000680450916904E4E3F4E020813181828153
:1032D0009381A481B581AB2B81F5DC01A61BB70BD3
:1032E000B7FD2BC0C816D90621F00196C816D9061D
:1032F00021F54217530729F02F5F3F4F421753071D
:10330000E1F482E390E00E94A70C0093E30580E0E3
:1033100090E0A0E4B0E480936C0490936D04A093DB
:103320006E04B0936F048091E4059091E5050196D9
:103330009093E5058093E40505C0369694E0E43665
:10334000F90719F6209166043091670480916A04A8
:1033500090916B04821B930B06970CF46CC02F5F4B
:103360003F4F3093670420936604809164049091EA
:103370006504189FF001199FF00D1124EC5CFB4FC0
:1033800082819381821793070CF055C0089693832E
:1033900082832091320430913304821B930B853059
:1033A000910594F4039714F40C9488230E94CA2581
:1033B00023E030E040E050E00E94D825672B682BE6
:1033C000692B11F00C948823A0906404B0906504DC
:1033D0000E94CA251A9D90011B9D300D1124F901F0
:1033E000EC5CFB4F6F0127E030E040E050E00E94D2
:1033F000D825D6016D937C938091640490916504E7
:10340000189FF001199FF00D1124EC5CFB4F158201
:10341000148282819381909333048093320480914B
:103420006404909165040196B7010E9474289093FA
:103430006504809364040E94830E20916A04309195
:103440006B0480916604909167042817390784F40F
:103450001092D10444EF51E064E070E085E393E022
:103460000E9429110E94100E0E94830E1092C10426
:103470006BE470E080E090E00E94AE08A9CED70136
:1034800050968D919C9151974091E7045091E8049A
:103490001E962D913C911F974217530771F0BFEF75
:1034A000CB1ADB0AE4E0EE0EF11C8091EF04909160
:1034B000F004C816D9061CF337C02091E9043091F6
:1034C000EA042817390759F72091EB043091EC04EE
:1034D00088279927821B930B232BB1F42091ED04AD
:1034E0003091EE042130310579F40E94CA25A20101
:1034F00091010E94D825672B682B692B19F081E078
:1035000090E002C08FEF9FEF9093EC048093EB0468
:103510008091ED049091EE0491958195910990939D
:10352000EE048093ED04BBCF85EE94E00E948E0FF5
:10353000009771F0019709F06DC044EF51E064E02D
:1035400070E085E393E00E9429110E94B71162C0E8
:103550008091E3049091E40401969093E4048093B5
:10356000E3046AE070E00E9474287C01892B09F072
:1035700051C044EF51E063E070E086EB91E00E94BF
:1035800029118091090190910A01A0910B01B0913C
:103590000C014E97A109B1098093090190930A018A
:1035A000A0930B01B0930C0188379105A105B105DB
:1035B000CCF48091F0059091F10501979093F1057D
:1035C0008093F005892B11F40E94B71188EC90E0EC
:1035D000A0E0B0E08093090190930A01A0930B0151
:1035E000B0930C018091090190910A01A0910B0107
:1035F000B0910C0186399105A105B1051CF4B2E02A
:10360000EB2EF12CF092F004E092EF0485EE94E0C2
:103610000E94D40C0E94760CE091E904F091EA0437
:10362000A3E0EE0FFF1FAA95E1F78091E7049091C8
:10363000E804E80FF91FE657FA4F81E080830E9403
:10364000BF104091EF045091F00420E030E061E0C1
:10365000241735070CF094C7D8015096ED91FC91D2
:10366000519773E0EE0FFF1F7A95E1F71E968D914B
:103670009C911F97E80FF91FE657FA4F60832F5F61
:103680003F4F0C5F1F4FE4CF80916E0590916F0507
:10369000009721F0019709F480C0E3C00E94E80878
:1036A00000917B0510917C0520917D0530917E0570
:1036B000AB01BC01401B510B620B730B8091700579
:1036C00090917105092E000CAA0BBB0B841795076E
:1036D000A607B70708F0C5C00E94E80860937B05FD
:1036E00070937C0580937D0590937E058091090100
:1036F00090910A01A0910B01B0910C018C019D01E8
:1037000009511109210931090093090110930A0196
:1037100020930B0130930C018235EFEF9E07AE072B
:10372000BE077CF0BC01CD0161557F4F8F4F9F4F8D
:103730000E94F507DC01CB0186509F4FAF4FBF4F72
:1037400004C08AEF90E0A0E0B0E090937105809310
:1037500070058091090190910A01A0910B01B0912F
:103760000C010F97A105B1050CF07BC08091750588
:1037700090917605092E000CAA0BBB0B80930901D2
:1037800090930A01A0930B01B0930C0181E090E0AB
:1037900090936F0580936E0564C080917905909138
:1037A0007A05019690937A0580937905089784F0BD
:1037B00064EF71E080E090E00E94AE0844EF51E0D9
:1037C00064E070E085E393E00E9429110E94B71144
:1037D0008091790590917A05079709F042C0809110
:1037E000E9059091EA0501962091770530917805D9
:1037F00028173907B1F564EF71E080E090E00E948E
:10380000AE0840E757E164E670E080E090E00E9497
:10381000FD0E48E55BE164E670E080E090E00E9428
:10382000FD0E40E45FE164E670E080E090E00E941D
:10383000FD0E8091E4059091E50501969093E505D4
:103840008093E40580917505909176050397909398
:10385000760580937505449714F40E94B7110E9471
:10386000D8110E94760C0E94BF102091E90530917A
:10387000EA058091EB059091EC05019743E0880FF4
:10388000991F4A95E1F7FC01E20FF31FE657FA4F43
:1038900041E0408386579A4FE091F005F091F105A1
:1038A0008E0F9F1F280F391FF90131974083809198
:1038B0006E0590916F05019709F062C6E091790558
:1038C000F0917A0503E0EE0FFF1F0A95E1F7809172
:1038D000770590917805E80FF91FE657FA4F408376
:1038E0004FC68091EF05882379F18091040690916D
:1038F0000506892B49F584E090E00E94F32390931C
:103900000506809304062091E9053091EA052F5FB2
:103910003F4FDC0111963C932E932091EB053091A3
:10392000EC052150310913963C932E9312970E9477
:10393000E80860930C0670930D0680930E06909332
:103940000F0681E08093E3050E94E80800911606C7
:10395000109117062091180630911906AB01BC0191
:10396000401B510B620B730B80911406909115064E
:10397000092E000CAA0BBB0B84179507A607B707E7
:1039800008F06FC00E94E80860931606709317064F
:10399000809318069093190600E010E08091F705D7
:1039A0009091F805081719070CF5B80185EF95E017
:1039B0000E94B803FC0180819181009711F0079764
:1039C00021F580911E0690911F06019690931F0687
:1039D00080931E0666E070E00E947428892B49F4EB
:1039E00081E090E090931D0680931C0600E010E0BB
:1039F0002DC080911A0690911B0691958195910991
:103A000090931B0680931A06F1CF0F5F1F4FC6CF0E
:103A1000B80185EF95E00E94B803FC0180911C0677
:103A200090911D06009751F44081518120911A0612
:103A300030911B06240F351F31832083228133816F
:103A4000820F931F938382830F5F1F4F8091F7052F
:103A50009091F80508171907DCF210921D061092D4
:103A60001C068091040690910506892B09F446C036
:103A70000E94E80800910C0610910D0620910E0698
:103A800030910F06AB01BC01401B510B620B730B55
:103A90008091080690910906092E000CAA0BBB0B19
:103AA00084179507A607B70748F548E253E261E097
:103AB00070E080E090E00E94FD0E0E94E8086093B4
:103AC0000C0670930D0680930E0690930F0680915E
:103AD000040690910506DC0112962D913C911397F6
:103AE0002150310913963C932E93129737FF06C04D
:103AF0000E94882410920506109204068091060602
:103B000090910706892B09F43FC00E94E8080091B4
:103B10001006109111062091120630911306AB0188
:103B2000BC01401B510B620B730B80910A069091F4
:103B30000B06092E000CAA0BBB0B84179507A607D2
:103B4000B707F8F40E94E808609310067093110616
:103B500080931206909313068091060690910706B3
:103B6000FC01228133812F5F3F4F283031051CF447
:103B70003383228306C00E94882410920706109285
:103B8000060600E010E05DC06091F7057091F80551
:103B9000072E000C880B990B0E94F50785EF95E026
:103BA0000E94B8038C01E12CF12C8091F7059091D3
:103BB000F805E816F906ECF4B70185EF95E00E94E8
:103BC000B803DC014D915C911197F801208131819E
:103BD0004217530751F412964D915C91139722812D
:103BE0003381241735070CF48C01FFEFEF1AFF0A1D
:103BF000DCCF48E253E26AE070E080E090E00E94AF
:103C0000FD0E84E090E00E94F323909307068093DA
:103C10000606D8012D913C911197FC013183208338
:103C200012962D913C911397338322830E94E808CA
:103C300060931006709311068093120690931306FA
:103C4000A0CF8091F7059091F8050817190754F453
:103C5000B80185EF95E00E94B8030E9483130F5FBF
:103C60001F4FEFCF80910606909107060E948313A5
:103C70008091040690910506892B91F4E091040649
:103C8000F0910506809106069091070640815181CA
:103C9000DC012D913C914217530709F07CC063C0B1
:103CA00000E010E08091F7059091F80508171907DA
:103CB0002CF7B80185EF95E00E94B803E091040667
:103CC000F091050640815181DC012D913C911197C5
:103CD0004217530709F044C02281338112968D9117
:103CE0009C91139728173907D9F5B80185EF95E00E
:103CF0000E94AA078091E4059091E50501969093B2
:103D0000E5058093E40582E390E00E94A70C809192
:103D10000406909105060E948824109205061092D0
:103D200004068091F7059091F805892BC9F484E485
:103D300091E00E94380D0E94331380910206909109
:103D400003060196909303068093020644EF51E028
:103D500063E070E086EB91E00E9429110E9422123C
:103D60000F5F1F4F9FCF42815381FC01228133811E
:103D70004217530781F40E9488241092070610927C
:103D8000060680910406909105060E9488241092F0
:103D90000506109204060E94760C0E94BF108091C6
:103DA000EB059091EC0513E0880F991F1A95E1F748
:103DB0008E579A4F2091E9053091EA05FC01E20FF8
:103DC000F31F21E0218300E010E0FF24F3948091B1
:103DD000F7059091F80508171907CCF4B80185EF9D
:103DE00095E00E94B803DC011296ED91FC911397C7
:103DF0008D919C91B3E0EE0FFF1FBA95E1F7E80FAC
:103E0000F91FE657FA4FF0820F5F1F4FE0CFA091E6
:103E10000406B0910506109789F01296ED91FC9179
:103E200013978D919C91A3E0EE0FFF1FAA95E1F7E8
:103E3000E80FF91FE657FA4F81E08083A09106064C
:103E4000B0910706109709F49BC31296ED91FC916F
:103E500013978D919C9173E0EE0FFF1F7A95E1F718
:103E6000A3C18091EE05882321F010926505109280
:103E700064058091ED05882331F082E090E0909315
:103E800065058093640560E070E08EE495E00E9433
:103E9000B8038C01FC0180819181089720F4828114
:103EA0009381089710F00E940A12EE24E394F12CFB
:103EB0008091500590915105E816F906F4F4B70188
:103EC0008EE495E00E94B803DC014D915C9111975E
:103ED000F801208131814217530759F412962D9130
:103EE0003C911397828193812817390711F40E941E
:103EF0000A12FFEFEF1AFF0ADBCFD8012D913C9198
:103F0000119780915F05909160052817390759F541
:103F100012962D913C9113978091610590916205C5
:103F20002817390701F581E08093630540ED57E0DC
:103F300063E270E080E090E00E94FD0E80916A05EF
:103F400090916B05A0916C05B0916D050F97A1093B
:103F5000B10980936A0590936B05A0936C05B093AB
:103F60006D050E94F2120E94E8080091660510910A
:103F700067052091680530916905DC01CB01801B44
:103F8000910BA20BB30B00916A0510916B05209168
:103F90006C0530916D05081719072A073B0708F0D3
:103FA000EFC20E94E80860936605709367058093EE
:103FB00068059093690580915B0590915C0520915F
:103FC0005D0530915E054091640550916505411590
:103FD000510541F430935C0520935B0591958195E3
:103FE00091090AC04230510559F4319521953109A2
:103FF00030935C0520935B0590935E0580935D058F
:1040000080916305882381F060915005709151057E
:10401000615071098EE495E00E94B803FC01C080F4
:10402000D180E280F38004C0E12CF12CC12CD12C92
:1040300000915005109151050150110910161106FB
:1040400044F5B8018EE495E00E94B8030E948824EC
:104050005801F1E0AF1AB108B5018EE495E00E9475
:10406000B803DC0112968D909C9013976D907C9014
:1040700084E090E00E94F323FC01718260829382CD
:104080008282AC01B8018EE495E00E949E03850116
:10409000D5CF80916305882321F184E090E00E94D0
:1040A000F323DC011196DC92CE921396FC92EE92F1
:1040B0001297BC018EE495E00E9406078091E4050A
:1040C0009091E50501969093E5058093E40548EB12
:1040D0005BE064E670E080E090E00E94FD0E1092EC
:1040E000630560E070E08EE495E00E94B803FC0197
:1040F0000281138120915D0530915E05020F131F2F
:10410000E080F18080915B0590915C05E80EF91EDE
:1041100084E090E00E94F323DC011196FC92EE9281
:1041200013961C930E931297AC0160E070E08EE43E
:1041300095E00E949E0381E090E090936505809356
:1041400064050E94760C00E010E0FF24F394809157
:1041500050059091510508171907CCF4B8018EE469
:1041600095E00E94B803DC011296ED91FC91139743
:104170008D919C9153E0EE0FFF1F5A95E1F7E80FE8
:10418000F91FE657FA4FF0820F5F1F4FE0CFE09123
:104190006105F091620543E0EE0FFF1F4A95E1F7DC
:1041A00080915F0590916005E80FF91FE657FA4F7F
:1041B00081E08083E5C189ED95E00E948E0F019733
:1041C00091F444EF51E064E070E085E393E00E94F5
:1041D00029118CEC95E00E9486030E94BE130C947A
:1041E00000000E94B7110E94760CE091DD05F0916D
:1041F000DE0533E0EE0FFF1F3A95E1F78091DB0516
:104200009091DC05E80FF91FE657FA4F81E08083B3
:104210000E94BF1000E010E08091CE059091CF0584
:10422000081719070CF062C0B8018CEC95E00E94E9
:10423000B8034091DB055091DC05FC012081318100
:104240004217530709F04FC02091DD053091DE057C
:10425000828193812817390709F045C0B8018CEC99
:1042600095E00E94AA078091E4059091E5050196EA
:104270009093E5058093E40540E45FE16FE070E032
:1042800080E090E00E94FD0E2091DF053091E00576
:1042900088279927821B930B232BB1F42091E105EA
:1042A0003091E2052130310579F40E94CA25A2013E
:1042B00091010E94D825672B682B692B19F081E0AA
:1042C00090E002C08FEF9FEF9093E0058093DF05B1
:1042D0008091E1059091E2059195819591099093E6
:1042E000E2058093E1050F5F1F4F96CF892BA1F563
:1042F0008091CA059091CB0501969093CB05809350
:10430000CA0544EF51E063E070E086EB91E00E9463
:1043100029118091090190910A01A0910B01B0919E
:104320000C014E97A109B1098093090190930A01EC
:10433000A0930B01B0930C010E94BE138CEC95E08E
:104340000E9486038091CA059091CB050E9454106B
:1043500089ED95E00E94D40C00E010E0FF24F39476
:104360008091CE059091CF05081719070CF008C170
:10437000B8018CEC95E00E94B803DC011296ED9137
:10438000FC9113978D919C9123E0EE0FFF1F2A95CE
:10439000E1F7E80FF91FE657FA4FF0820F5F1F4F62
:1043A000DFCF0E94E8080091DA041091DB0420912D
:1043B000DC043091DD04DC01CB01801B910BA20BEE
:1043C000B30B85369105A105B10580F00E94E80880
:1043D0006093DA047093DB048093DC049093DD0433
:1043E0009091DE0481E089278093DE0483E090E0F1
:1043F0009093F1058093F0050091E9051091EA058D
:104400000F5F1F4F2091090130910A018091E10453
:104410009091E204820F931F9093E2048093E10451
:104420002091DF043091E00428173907ECF58091E2
:10443000D2049091D30401979093D3048093D20433
:104440002091E4053091E5052F5F3F4F3093E5055E
:104450002093E40597FF24C08091D4049091D50463
:104460009093D3048093D2048091D8049091D9047E
:1044700001969093D9048093D804029744F04AEFB0
:1044800050E062E070E086EB91E00E94291180919B
:10449000DF049091E0040A979093E0048093DF0496
:1044A0001092E2041092E10481E090E07C0102C0ED
:1044B000EE0CFF1C0A95E2F79E2C8AE8A82E85E0F8
:1044C000B82E00E010E092E3C92ED12C882483940A
:1044D0008091D2049091D304800F911F6091D404F5
:1044E0007091D5040E947428FC01EA56FF4F749025
:1044F0000630110524F18091DE04882301F1872D17
:1045000090E08E219F21892BC9F084E893E00E94DE
:10451000A70C8091E4059091E505B6010E947428EE
:104520007093E5056093E40544EF51E064E070E0CA
:1045300085E393E00E9429110E94B711790C20E0D5
:1045400030E0E72DF0E0D501A20FB31FCF01022E1E
:1045500002C0959587950A94E2F780FF02C08C927D
:1045600001C01C922F5F3F4F2830310561F70F5F6C
:104570001F4FB8E0AB0EB11C0830110509F0A8CFF1
:1045800080E090E0892B11F40C946F140E940000DD
:104590000C946F14C80101962091F0053091F1053B
:1045A00008E010E0021B130B801791070CF48C013C
:1045B0000E94E8086093FE047093FF048093000556
:1045C000909301050E94E8086093BD047093BE04B7
:1045D0008093BF049093C0040C948F140150110970
:1045E00017FF02C000E010E00E94E8086093FE049C
:1045F0007093FF0480930005909301050E94E808E2
:104600006093B9047093BA048093BB049093BC0484
:104610000C94AB141092FD0480917A008F778093F4
:104620007A008091640080688093640080916400C7
:104630008460809364008091640082608093640051
:1046400085B7806685BF8F7D85BF83B7817F846096
:1046500083BF83B7816083BF1092B8048EEF91E06F
:104660000E948D1040E45FE164E670E080E090E03D
:104670000E94FD0E48E55BE164E670E080E090E0BA
:104680000E94FD0E40E757E164E670E080E090E0B4
:104690000E94FD0E0E94760C80E1809381001092B2
:1046A0006F0009EE12E061E0D8018D918D010E944A
:1046B0004208B2E0013F1B07B1F78091B8048111B5
:1046C0000C94091583B7816083BF889583B78E7F6B
:1046D00083BF40E757E164E670E080E090E00E942D
:1046E000FD0E48E55BE164E670E080E090E00E944A
:1046F000FD0E40E45FE164E670E080E090E00E943F
:10470000FD0EDBCFF0927304E09272040C94A017BC
:104710008091640490916504189FF001199FF00D39
:104720001124EC5CFB4F758264820C940F1A8CECA4
:1047300095E00E94780A8EE495E00E94780A85EF61
:1047400095E00C94780ACF93DF93E6EEF5E083E0F2
:1047500090E093878287C1E0D0E0D483C38387E071
:1047600090E09683858362E083E10E94720862E0B4
:1047700082E10E94720862E082E00E94720861E0B9
:1047800083E00E94720862E082E10E94720862E0A7
:1047900083E10E9472080E94760CEFE7F5E088E062
:1047A00090E0918380831186108685EF95E00E94CA
:1047B0008E0AE5EFF5E0D687C58789E190E0948B16
:1047C000838B88EC90E0968B858B8EE495E00E943D
:1047D0008E0AD093CB05C093CA058CEC95E0DF918F
:1047E000CF910C948E0ACF93DF938230910510F411
:1047F00082E090E0E0912206F091230620E030E094
:10480000C0E0D0E0309711F140815181481759073D
:10481000C0F04817590761F482819381209719F0FD
:104820009B838A832BC0909323068093220626C005
:104830002115310519F04217530718F49A01BE01EA
:10484000DF01EF010280F381E02DDCCF211531057E
:1048500009F1281B390B2430310590F412968D9103
:104860009C9113976115710521F0FB01938382835D
:1048700004C09093230680932206FD01329644C023
:10488000FD01E20FF31F81939193225031092D9383
:104890003C933AC02091200630912106232B41F40D
:1048A00020910F01309110013093210620932006B2
:1048B00020910D0130910E012115310541F42DB7E4
:1048C0003EB74091110150911201241B350BE0912C
:1048D0002006F0912106E217F307A0F42E1B3F0BF0
:1048E0002817390778F0AC014E5F5F4F2417350762
:1048F00048F04E0F5F1F509321064093200681938E
:10490000919302C0E0E0F0E0CF01DF91CF910895F4
:104910000F931F93CF93DF93009709F48CC0FC0192
:1049200032971382128200912206109123060115FC
:10493000110581F420813181820F931F209120067F
:10494000309121062817390779F5F0932106E09375
:10495000200671C0D80140E050E0AE17BF0750F408
:1049600012962D913C911397AD012115310509F156
:10497000D901F3CF9D01DA013383228360817181F4
:10498000860F971F8217930769F4EC0128813981FC
:10499000260F371F2E5F3F4F318320838A819B81F3
:1049A00093838283452B29F4F0932306E093220618
:1049B00042C01396FC93EE931297ED0149915991E1
:1049C0009E01240F351FE217F30771F48081918156
:1049D000840F951F029611969C938E9382819381EA
:1049E00013969C938E931297E0E0F0E0D801129614
:1049F0008D919C911397009719F0F8018C01F6CFD7
:104A00008D919C9198012E5F3F4F820F931F2091B3
:104A10002006309121062817390769F4309729F4C8
:104A2000109223061092220602C013821282109363
:104A3000210600932006DF91CF911F910F910895D9
:104A40008F929F92AF92BF92CF92DF92EF92FF929E
:104A5000CF93DF93EC01688179818A819B81611515
:104A600071058105910521F464E279ED8BE597E00C
:104A70002DE133EF41E050E00E94D82549015A0171
:104A80009B01AC01A7EAB1E40E94F7256B017C0110
:104A9000ACEEB4EFA50194010E940526DC01CB0128
:104AA0008C0D9D1DAE1DBF1DB7FF03C00197A10951
:104AB000B04888839983AA83BB839F77DF91CF9186
:104AC000FF90EF90DF90CF90BF90AF909F908F902E
:104AD00008950E942025089583E191E00E942025F9
:104AE0000895A0E0B0E08093130190931401A09387
:104AF0001501B093160108958F929F92AF92BF92C5
:104B0000CF92DF92EF92FF92CF93DF93EC01688117
:104B100079818A819B81611571058105910521F457
:104B200064E279ED8BE597E02DE133EF41E050E071
:104B30000E94D82549015A019B01AC01A7EAB1E4C2
:104B40000E94F7256B017C01ACEEB4EFA501940146
:104B50000E940526DC01CB018C0D9D1DAE1DBF1DE5
:104B6000B7FF03C00197A109B04888839983AA833E
:104B7000BB83BC01CD019F77DF91CF91FF90EF9078
:104B8000DF90CF90BF90AF909F908F9008950E943C
:104B90007C25089587E191E00E947C25089560932B
:104BA0001701709318018093190190931A010895C9
:104BB000052E97FB1EF400940E94EF2557FD07D0A9
:104BC0000E940A2607FC03D04EF40C94EF25509562
:104BD0004095309521953F4F4F4F5F4F08959095E9
:104BE0008095709561957F4F8F4F9F4F08950E94DC
:104BF0002C26A59F900DB49F900DA49F800D911D14
:104C000011240895B7FF0C94F7250E94F725821B05
:104C1000930B0895A1E21A2EAA1BBB1BFD010DC028
:104C2000AA1FBB1FEE1FFF1FA217B307E407F5075C
:104C300020F0A21BB30BE40BF50B661F771F881F38
:104C4000991F1A9469F760957095809590959B01CE
:104C5000AC01BD01CF010895A29FB001B39FC00177
:104C6000A39F700D811D1124911DB29F700D811D98
:104C70001124911D08955058BB27AA270E9453263E
:104C80000C94CD270E94BF2738F00E94C62720F041
:104C900039F49F3F19F426F40C94BC270EF4E095E8
:104CA000E7FB0C94B627E92F0E94DE2758F3BA17CA
:104CB000620773078407950720F079F4A6F50C9432
:104CC00000280EF4E0950B2EBA2FA02D0B01B90190
:104CD00090010C01CA01A0011124FF27591B99F072
:104CE000593F50F4503E68F11A16F040A22F232F7E
:104CF000342F4427585FF3CF469537952795A795CE
:104D0000F0405395C9F77EF41F16BA0B620B730B74
:104D1000840BBAF09150A1F0FF0FBB1F661F771FE5
:104D2000881FC2F70EC0BA0F621F731F841F48F49A
:104D3000879577956795B795F7959E3F08F0B0CF23
:104D40009395880F08F09927EE0F9795879508950A
:104D50000E94922708F481E008950E94C1260C94D5
:104D6000CD270E94C62758F00E94BF2740F029F4A3
:104D70005F3F29F00C94B62751110C9401280C9434
:104D8000BC270E94DE2768F39923B1F3552391F3E2
:104D9000951B550BBB27AA2762177307840738F0AA
:104DA0009F5F5F4F220F331F441FAA1FA9F335D007
:104DB0000E2E3AF0E0E832D091505040E695001CBB
:104DC000CAF72BD0FE2F29D0660F771F881FBB1F75
:104DD000261737074807AB07B0E809F0BB0B802D53
:104DE000BF01FF2793585F4F3AF09E3F510578F07F
:104DF0000C94B6270C9401285F3FE4F3983ED4F35B
:104E0000869577956795B795F7959F5FC9F7880F52
:104E1000911D9695879597F90895E1E0660F771FA4
:104E2000881FBB1F621773078407BA0720F0621B35
:104E3000730B840BBA0BEE1F88F7E09508950E9460
:104E400026276894B1110C94012808950E94E62742
:104E500088F09F5798F0B92F9927B751B0F0E1F03B
:104E6000660F771F881F991F1AF0BA95C9F714C0EB
:104E7000B13091F00E940028B1E008950C94002810
:104E8000672F782F8827B85F39F0B93FCCF3869524
:104E900077956795B395D9F73EF490958095709581
:104EA00061957F4F8F4F9F4F0895E89409C097FBFE
:104EB0003EF490958095709561957F4F8F4F9F4FF1
:104EC0009923A9F0F92F96E9BB279395F695879535
:104ED00077956795B795F111F8CFFAF4BB0F11F4F8
:104EE00060FF1BC06F5F7F4F8F4F9F4F16C088239F
:104EF00011F096E911C0772321F09EE8872F762FD5
:104F000005C0662371F096E8862F70E060E02AF015
:104F10009A95660F771F881FDAF7880F9695879501
:104F200097F90895990F0008550FAA0BE0E8FEEFD6
:104F300016161706E807F907C0F012161306E4075D
:104F4000F50798F0621B730B840B950B39F40A2656
:104F500061F0232B242B252B21F408950A2609F434
:104F6000A140A6958FEF811D811D089597F99F6738
:104F700080E870E060E008959FEF80EC08950024E1
:104F80000A941616170618060906089500240A94AE
:104F900012161306140605060895092E0394000C34
:104FA00011F4882352F0BB0F40F4BF2B11F460FFC3
:104FB00004C06F5F7F4F8F4F9F4F089557FD9058EC
:104FC000440F551F59F05F3F71F04795880F97FBCD
:104FD000991F61F09F3F79F0879508951216130687
:104FE0001406551FF2CF4695F1DF08C016161706B6
:104FF0001806991FF1CF86957105610508940895EB
:10500000E894BB2766277727CB0197F908950E947C
:105010001A280C94CD270E94BF2738F00E94C6277B
:1050200020F0952311F00C94B6270C94BC27112482
:105030000C9401280E94DE2770F3959FC1F3950F11
:1050400050E0551F629FF001729FBB27F00DB11D0C
:10505000639FAA27F00DB11DAA1F649F6627B00D9C
:10506000A11D661F829F2227B00DA11D621F739F85
:10507000B00DA11D621F839FA00D611D221F749F93
:105080003327A00D611D231F849F600D211D822FDA
:10509000762F6A2F11249F5750409AF0F1F0882301
:1050A0004AF0EE0FFF1FBB1F661F771F881F91502E
:1050B0005040A9F79E3F510580F00C94B6270C9400
:1050C00001285F3FE4F3983ED4F386957795679582
:1050D000B795F795E7959F5FC1F7FE2B880F911D58
:1050E0009695879597F9089597FB072E16F40094E7
:1050F00007D077FD09D00E94952807FC05D03EF423
:10510000909581959F4F0895709561957F4F089573
:10511000EE0FFF1F0590F491E02D09940E942C26BC
:10512000B7FF0895821B930B0895AA1BBB1B51E187
:1051300007C0AA1FBB1FA617B70710F0A61BB70B07
:10514000881F991F5A95A9F780959095BC01CD01AC
:10515000089512E0CCECD2E004C0FE010E94882841
:0C5160002196CD3CD107C9F7F894FFCF91
:10516C004E034E0301001E00070A0000000000243D
:10517C00068000010000000100000000000000009B
:10518C00000000000000000101010100010000000E
:10519C000100000001000000010000000000000000
:1051AC0000000000000000010101010001000000EE
:1051BC0001000000010000000100000000000001DF
:1051CC0001010000010000000000000001000001CE
:1051DC0001000000010000000000000000000000C1
:1051EC0001000001010100000000000001000000AE
:1051FC00010100000100000000000001010000019D
:10520C00010000000000000000000001010000018E
:10521C00010000000000000000000001010000017E
:10522C00010000000000000000000001010000016E
:10523C000100000000000000000000000100000060
:10524C00010000010100000000000000000000014E
:10525C00000000010101000000000000010100003D
:10526C00010000000100000000000000000000012F
:10527C00010100000001000000000000010000001E
:10528C00010000000101000000000000000000010E
:10529C0001010001000000000000000101000000FD
:1052AC0001000000010000000000000000010001EE
:1052BC0001010000000000000000000001000001DE
:1052CC0001000001000000000000000000000001CF
:1052DC0001000000010100000000000001000001BD
:1052EC0001000001000000000000000000000001AF
:1052FC00010000000101000000000001000000019D
:10530C00010000000100000000000000000000008F
:10531C00010100010100000000000001000000017B
:10532C00010000000100000000000000000000006F
:10533C0001010001010000000000009B025B021B48
:10534C0002DB019B015B011B010F0B080006110D19
:10535C000CCDDFF10416203B4DC0D4E8FC102539F0
:10536C004DC0D8F0071F374F66B3BFCBD7E3EFFB69
:10537C0007131F2B37434F5A66C0CBD6E1ECF7030C
:10538C000E19242F3A45505B66AEBAC5D1DDE8F450
:10539C00FF0B17222E3945515CAEBCCAD8E6F4017E
:1053AC000F1D2B39475563717E929FADBAC8D5E35B
:1053BC00F0FE0B192634414F5CAEB5BCC3CCD4DE29
:1053CC00E8F2FC06101A242D363E464D53595E6207
:1053DC00666A6D70727476777F8384848485858623
:1053EC0088898A8B8C8D8F919399A1ACB8C7D9EC95
:1053FC000014273948555F676D00101112131415EE
:10540C00161718191A1B1C1D1E1F202122232425B8
:10541C00262728292A2B2D2F31333536393B3D3F72
:10542C00424547494D4F5155575C5F63666A6E73F1
:10543C00777B80858A8F959AA00002030405070A62
:10544C000F142029395172A1FF002AD432B212252F
:10545C001402E1C5025F5A050F26FCA5A5D6DDDCBA
:10546C00FC252B22210FFFF8EEEDEFF7F6FA0003E7
:10547C000201070A050910040E0100000000B40324
:10548C0070060607D0069E03AA072E076F07B803FF
:02549C00860385
:00000001FF
